:100000000C9462000C948A000C948A000C948A0070
:100010000C948A000C948A000C948A000C948A0038
:100020000C948A000C948A000C948A000C948A0028
:100030000C948A000C948A000C948A000C948A0018
:100040000C9450010C948A000C94B8020C948A0011
:100050000C948A000C948A000C948A000C948A00F8
:100060000C948A000C948A000000000024002700F1
:100070002A0000000000250028002B0000000000DE
:1000800023002600290004040404040404040202DA
:100090000202020203030303030301020408102007
:1000A0004080010204081020010204081020000012
:1000B0000007000201000003040600000000000029
:1000C0000000490411241FBECFEFD4E0DEBFCDBF36
:1000D00011E0A0E0B1E0EEEDFAE002C005900D9273
:1000E000AC31B107D9F711E0ACE1B1E001C01D922C
:1000F000AC3BB107E1F710E0C4ECD0E004C02297BC
:10010000FE010E946905C23CD107C9F70E9449015E
:100110000C946D050C940000CF92DF92EF92FF9249
:100120000F931F93CF93DF9389EA91E00E94EE0330
:10013000882309F473C089EA91E00E94020482379F
:10014000910509F06BC080910A010E9469028C013F
:1001500080910C010E9469027C0180910E010E9435
:1001600069026C01012B71F489EA91E060E071E0B1
:100170000E94BA048091100161E00E941C02C0E05C
:10018000D0E008C089EA91E062E071E00E94BA0420
:10019000C1E0D0E089EA91E064E071E00E94BA0435
:1001A000EF2861F489EA91E066E071E00E94BA0408
:1001B0008091100161E00E941C0207C089EA91E071
:1001C00062E071E00E94BA04219689EA91E064E05D
:1001D00071E00E94BA04CD2851F489EA91E068E008
:1001E00071E00E94BA048091100161E00BC089EABD
:1001F00091E062E071E00E94BA04229729F48091B4
:10020000100160E00E941C0289EA91E064E071E064
:100210000E94D90489EA91E00E942A0464E670E011
:1002200080E090E00E949801DF91CF911F910F91A3
:10023000FF90EF90DF90CF90089580910A0160E0E9
:100240000E94FC0180910A0161E00E941C028091E1
:100250000C0160E00E94FC0180910C0161E00E94B1
:100260001C0280910E0160E00E94FC0180910E0151
:1002700061E00E941C028091100161E00E94FC017B
:1002800089EA91E040E855E260E070E00E94F50202
:1002900008950E94C2010E941D010E948C00FDCFA2
:1002A0001F920F920FB60F9211242F933F938F93AB
:1002B0009F93AF93BF938091200190912101A091D2
:1002C0002201B0912301309124010196A11DB11D9D
:1002D000232F2D5F2D3720F02D570196A11DB11D25
:1002E000209324018093200190932101A093220167
:1002F000B093230180911C0190911D01A0911E01DA
:10030000B0911F010196A11DB11D80931C01909316
:100310001D01A0931E01B0931F01BF91AF919F914A
:100320008F913F912F910F900FBE0F901F901895B6
:10033000EF92FF920F931F937B018C018FB7F8947C
:10034000409120015091210160912201709123017F
:100350008FBF2FB7F8948091200190912101A09137
:100360002201B09123012FBF841B950BA60BB70B65
:10037000E816F9060A071B0760F71F910F91FF9017
:10038000EF900895789484B5826084BD84B58160CF
:1003900084BD85B5826085BD85B5816085BDEEE68D
:1003A000F0E0808181608083E1E8F0E0808182601C
:1003B0008083808181608083E0E8F0E080818160DB
:1003C0008083E1EBF0E0808184608083E0EBF0E00B
:1003D000808181608083EAE7F0E0808184608083AF
:1003E0008081826080838081816080838081806859
:1003F00080831092C1000895282F30E0C9018656ED
:100400009F4FFC0194912A573F4FF9018491882313
:1004100091F0E82FF0E0EE0FFF1FE859FF4FA59194
:10042000B491662329F48C91909589238C93089537
:100430008C91892B8C930895482F50E0CA018255E6
:100440009F4FFC012491CA0186569F4FFC01949155
:100450004A575F4FFA0134913323D1F1222331F10E
:10046000233021F4809180008F7705C0243031F44F
:10047000809180008F7D8093800018C0213019F416
:1004800084B58F7704C0223021F484B58F7D84BD7C
:100490000DC0263021F48091B0008F7705C0273041
:1004A00029F48091B0008F7D8093B000E32FF0E0BD
:1004B000EE0FFF1FEE58FF4FA591B491662329F46C
:1004C0008C91909589238C9308958C91892B8C9392
:1004D0000895682F70E0CB0182559F4FFC01249155
:1004E000CB0186569F4FFC0144916A577F4FFB0119
:1004F0009491992319F420E030E038C0222331F19F
:10050000233021F4809180008F7705C0243031F4AE
:10051000809180008F7D8093800018C0213019F475
:1005200084B58F7704C0223021F484B58F7D84BDDB
:100530000DC0263021F48091B0008F7705C02730A0
:1005400029F48091B0008F7D8093B000892F90E0D6
:10055000880F991F84589F4FFC01A591B4918C91ED
:1005600020E030E0842311F021E030E0C90108955B
:100570001F920F920FB60F9211242F933F934F9318
:100580005F936F937F938F939F93AF93BF93EF93FB
:10059000FF934091C600E091A501F091A601CF0123
:1005A000019660E870E00E9403059C018091A7011C
:1005B0009091A8012817390739F0EB5DFE4F408371
:1005C0003093A6012093A501FF91EF91BF91AF91C8
:1005D0009F918F917F916F915F914F913F912F915B
:1005E0000F900FBE0F901F9018955F926F927F92A1
:1005F0008F929F92AF92BF92CF92DF92EF92FF9233
:100600000F931F93CF93DF93EC013A014B014134D9
:1006100082E458078FE0680780E078070CF07FC01D
:1006200060E874E88EE190E0A40193010E9438052F
:100630002150304040405040CA01B90122E030E032
:1006400040E050E00E94380559016A01A601950179
:10065000209530954095509594E0220F331F441F0C
:10066000551F9A95D1F760E074E284EF90E00E9404
:100670003805CA01B9012FEF30E040E050E00E9498
:10068000E404A40193010E943805C90181509F4FE1
:10069000181619061CF4522E5A9403C0552453946C
:1006A000521A60E079E08DE390E0A40193010E948A
:1006B00038052150304040405040CA01B90122E085
:1006C00030E040E050E00E9438052095309540959C
:1006D000509583E0220F331F441F551F8A95D1F791
:1006E00060E074E284EF90E00E943805CA01B9012D
:1006F0002FEF30E040E050E00E94E404A4019301B9
:100700000E943805C90181509F4F181619061CF424
:10071000822F815002C081E0821B851500F5E8859B
:10072000F98581E090E00A8802C0880F991F0A9439
:10073000E2F7808360E079E08DE390E0A40193012B
:100740000E9438052150304040405040CA01B90154
:1007500022E030E040E050E00E94380504C0E88527
:10076000F98510829501EC81FD813083EE81FF8156
:100770002083EA85FB85208141E050E0CA010E8498
:1007800002C0880F991F0A94E2F7282B2083EA857C
:10079000FB852081CA010F8402C0880F991F0A942B
:1007A000E2F7282B2083EA85FB858081088802C038
:1007B000440F551F0A94E2F7842B8083DF91CF9179
:1007C0001F910F91FF90EF90DF90CF90BF90AF906F
:1007D0009F908F907F906F905F900895DC011296AC
:1007E000ED91FC911397E058FF4F819191918058C2
:1007F0009F4F20813181821B930B60E870E00E9443
:1008000003050895CF93DF93DC011296ED91FC91DF
:100810001397EF01CE57DF4F48815981E058FF4FC2
:1008200080819181E058F0408417950719F42FEFEB
:100830003FEF0CC0E40FF51F2081CA01019660E86C
:1008400070E00E9403059983888330E0C901DF913D
:10085000CF910895DC011296ED91FC911397EE571C
:10086000FF4F80819181929382930895FC01A0852E
:10087000B18521898C9190E0022E02C095958795D3
:100880000A94E2F780FFF6CF0484F585E02D6083BB
:10089000089586E191E09093AA018093A90185E2F1
:1008A00091E09093AC018093AB0185EC90E0909344
:1008B000AE018093AD0184EC90E09093B001809301
:1008C000AF0180EC90E09093B2018093B10181EC94
:1008D00090E09093B4018093B30186EC90E0909304
:1008E000B6018093B50184E08093B70183E08093E3
:1008F000B80187E08093B90185E08093BA0181E077
:100900008093BB0108950F931F93CF93DF938C01C6
:10091000EB0109C02196D801ED91FC910190F08185
:10092000E02DC801099568816623A1F7DF91CF9179
:100930001F910F910895EF92FF920F931F93CF9302
:10094000DF938C017B01EA010CC0D7016D917D0121
:10095000D801ED91FC910190F081E02DC80109953D
:100960002197209791F7DF91CF911F910F91FF90E1
:10097000EF900895DC01ED91FC910280F381E02D70
:10098000099508950F931F938C01DC01ED91FC9163
:100990000190F081E02D6DE00995D801ED91FC9179
:1009A0000190F081E02DC8016AE009951F910F9137
:1009B00008950F931F938C010E94BA04C8010E94EE
:1009C000C2041F910F910895629FD001739FF0019F
:1009D000829FE00DF11D649FE00DF11D929FF00DCF
:1009E000839FF00D749FF00D659FF00D9927729F06
:1009F000B00DE11DF91F639FB00DE11DF91FBD0191
:100A0000CF011124089597FB092E07260AD077FD00
:100A100004D049D006D000201AF4709561957F4F1C
:100A20000895F6F7909581959F4F0895A1E21A2EAB
:100A3000AA1BBB1BFD010DC0AA1FBB1FEE1FFF1F82
:100A4000A217B307E407F50720F0A21BB30BE40BD2
:100A5000F50B661F771F881F991F1A9469F7609519
:100A60007095809590959B01AC01BD01CF010895D3
:100A700097FB092E05260ED057FD04D0D7DF0AD0EC
:100A8000001C38F450954095309521953F4F4F4FBD
:100A90005F4F0895F6F790958095709561957F4F1B
:100AA0008F4F9F4F0895AA1BBB1B51E107C0AA1F80
:100AB000BB1FA617B70710F0A61BB70B881F991FFF
:100AC0005A95A9F780959095BC01CD010895EE0F38
:0E0AD000FF1F0590F491E02D0994F894FFCFDC
:100ADE00720078002C006700620002000300040020
:0C0AEE000C0000000000360483049B0490
:00000001FF
