:100000000C945B000C9481000C9481000C94810092
:100010000C9481000C9481000C9481000C9481005C
:100020000C9481000C9481000C9481000C9481004C
:100030000C9481000C9481000C9481000C9481003C
:100040000C9413020C9481000C94ED030C94810029
:100050000C9481000C9481000C9481000C9481001C
:100060000C9481000C948100120200000007000231
:10007000010000030406000000000000000001026F
:100080000408102040800102040810200102040826
:100090001020040404040404040402020202020204
:1000A0000303030303030000232629000025282B54
:1000B000000024272A0011241FBECFEFD4E0DEBFAA
:1000C000CDBF11E0A0E0B1E0E2EDFAE002C00590A2
:1000D0000D92A231B107D9F711E0A2E1B1E001C060
:1000E0001D92AB39B107E1F710E0CAE6D0E004C0D9
:1000F0002297FE010E946505C836D107C9F70C9406
:1001000037010C94000060E0809106010E94C1025A
:1001100061E0809106010E94280360E08091040163
:100120000E94C10261E0809104010E94280360E006
:10013000809102010E94C10261E0809102010E944F
:10014000280361E0809100010E94C10240E855E26D
:1001500060E070E082E191E00E9444010895CF9256
:10016000DF92EF92FF920F931F93CF93DF9382E181
:1001700091E00E944901882309F46AC082E191E07C
:100180000E944D018237910509F062C080910601FD
:100190000E94DF028C01809104010E94DF027C0139
:1001A000809102010E94DF026C01012B71F468E072
:1001B00071E082E191E00E94570161E080910001CD
:1001C0000E942803C0E0D0E008C06AE071E082E14C
:1001D00091E00E945701C1E0D0E0EF2861F46CE0AB
:1001E00071E082E191E00E94570161E0809100019D
:1001F0000E94280307C06AE071E082E191E00E945A
:1002000057012196CD2861F46EE071E082E191E022
:100210000E94570161E0809100010E94280307C0FD
:100220006AE071E082E191E00E94570121962397F4
:100230002CF060E0809100010E94280360E171E0F1
:1002400082E191E00E94570182E191E00E94500119
:1002500064E670E080E090E00E945002DF91CF9170
:100260001F910F91FF90EF90DF90CF900895CFEF07
:10027000D4E0DEBFCDBF0E947F020E9483000E94B7
:10028000AF00FDCF08950895CB01BA010E9473031A
:1002900008950E94B403992708950E94C503089504
:1002A0000E94E4030895862F0E942B040895CB0139
:1002B0000E9432040895862F0E942B0408950F9304
:1002C0001F938C016DE00E9453016AE0C8010E94F7
:1002D00053011F910F9108950F931F938C010E945A
:1002E0005301C8010E945F011F910F9108950F9360
:1002F0001F938C010E945701C8010E945F011F914A
:100300000F9108950F931F938C010E945B01C80108
:100310000E945F011F910F910895CB01BA0133270D
:10032000442755270E943F0408952AE00E948D012A
:1003300008950F931F938C010E949501C8010E949C
:100340005F011F910F910895AB01662777270E94E7
:10035000950108950F931F938C010E94A401C80179
:100360000E945F011F910F910895EF92FF920F93EA
:100370001F93CF93DF93EC017A018B0177FF0BC0C2
:100380006DE20E94530110950095F094E094E11CF9
:10039000F11C011D111D2AE0B801A701CE010E9428
:1003A0008D01DF91CF911F910F91FF90EF900895F4
:1003B0000F931F938C010E94B501C8010E945F0139
:1003C0001F910F9108952115310521F4642F0E948A
:1003D000530108952A30310519F40E94B50108959A
:1003E0000E948D0108950F931F938C010E94E301D9
:1003F000C8010E945F011F910F910895AB0166270C
:1004000057FD6095762F0E94B50108950F931F93B5
:100410008C010E94FE01C8010E945F011F910F9193
:100420000895089508951F920F920FB60F92112408
:100430008F939F93AF93BF93809117019091180171
:10044000A0911901B0911A010196A11DB11D8093CF
:10045000170190931801A0931901B0931A01BF914D
:10046000AF919F918F910F900FBE0F901F90189595
:1004700060911701709118018091190190911A01F2
:1004800027E0660F771F881F991F2A95D1F72DE760
:1004900030E040E050E00E941205CA01B901089521
:1004A000AF92BF92CF92DF92EF92FF920F931F9382
:1004B0005B016C010E9438027B018C010E943802B2
:1004C0006E197F09800B910B6A157B058C059D05C4
:1004D000A8F31F910F91FF90EF90DF90CF90BF9006
:1004E000AF900895019751F0880F991F880F991FB9
:1004F00002972FB7F8940197F1F72FBF08957894DA
:1005000010921701109218011092190110921A01FD
:1005100084B5826084BD84B5816084BD85B5826008
:1005200085BD85B5816085BDEEE6F0E080818160A6
:100530008083E1E8F0E08081826080838081816057
:100540008083E0E8F0E0808181608083E1EBF0E08F
:10055000808184608083E0EBF0E080818160808333
:10056000EAE7F0E08081846080838081826080831C
:100570008081816080838081806880831092C10047
:100580000895282F3327C90182589F4FFC01949169
:100590002E563F4FF9018491882381F0E82FFF27E1
:1005A000E055FF4FE491FF27662329F48081909561
:1005B0008923808308958081892B80830895482F23
:1005C0005527CA0186599F4FFC012491CA018258C0
:1005D0009F4FFC0194914E565F4FFA0134913323A3
:1005E000A1F1222331F1233021F4809180008F7713
:1005F00005C0243031F4809180008F7D809380008D
:1006000018C0213019F484B58F7704C0223021F44A
:1006100084B58F7D84BD0DC0263021F48091B0005B
:100620008F7705C0273029F48091B0008F7D8093AB
:10063000B000E32FFF27EA55FF4FE491FF278081A9
:10064000892319F081E090E0089580E090E008951A
:10065000482F5527CA0186599F4FFC012491CA0192
:1006600082589F4FFC0194914E565F4FFA0134918E
:100670003323C1F1222331F1233021F48091800012
:100680008F7705C0243031F4809180008F7D809376
:10069000800018C0213019F484B58F7704C022304F
:1006A00021F484B58F7D84BD0DC0263021F4809166
:1006B000B0008F7705C0273029F48091B0008F7D7E
:1006C0008093B000E32FFF27E555FF4FE491FF270C
:1006D000662329F480819095892380830895808101
:1006E000892B80830895EF92FF920F931F937B01D4
:1006F0008C0122E030E040E050E00E943405205CB4
:100700003D4B404F5F4FCA01B901A80197010E94BC
:1007100034052150304040405040BB2757FDBA952A
:10072000A52F942F832F2F5F3F4F4F4F5F4F809305
:10073000C50021502093C400E1ECF0E0808180618D
:1007400080838081886080838081806880831F911E
:100750000F91FF90EF900895982F8091C00085FF32
:10076000FCCF9093C60008958091150190911601D9
:100770002091130130911401821B930B80589F4FDD
:1007800060E870E00E94FF040895409113015091C9
:10079000140180911501909116018417950719F4A1
:1007A0008FEF9FEF0895FA01E55EFE4F2081CA01A9
:1007B000019660E870E00E94FF049093140180931A
:1007C0001301822F992708958091130190911401AC
:1007D000909316018093150108951F920F920FB602
:1007E0000F9211242F933F934F935F936F937F93B7
:1007F0008F939F93AF93BF93EF93FF934091C60066
:10080000E0911501F0911601CF01019660E870E0CA
:100810000E94FF049C0180911301909114012817FC
:10082000390739F0E55EFE4F40833093160120937F
:100830001501FF91EF91BF91AF919F918F917F91A2
:100840006F915F914F913F912F910F900FBE0F903D
:100850001F90189508950E94AC0308958AE00E94A5
:100860002B040895CF93DF93EC0103C021960E94DF
:100870002B0488818823D1F7DF91CF9108952F929F
:100880003F924F925F926F927F928F929F92AF9220
:10089000BF92CF92DF92EF92FF920F931F93CF936D
:1008A000DF93CDB7DEB7A0970FB6F894DEBF0FBECB
:1008B000CDBF6B017C0119012A016115710581050C
:1008C000910521F480E30E942B044BC06624772419
:1008D00043015E010894A11CB11C8501060D171D82
:1008E000C701B601A20191010E941205F8016083BF
:1008F0000894611C711C811C911CC701B601A201E6
:1009000091010E94120569017A0121153105410505
:10091000510519F773010894E108F108EA0CFB1C72
:10092000AA24BB24650111C0F70180818A3010F42C
:10093000805D01C0895C0E942B040894A108B10865
:10094000C108D1080894E108F10888279927DC013B
:1009500086199709A809B909A816B906CA06DB06B7
:1009600019F7A0960FB6F894DEBF0FBECDBFDF918A
:10097000CF911F910F91FF90EF90DF90CF90BF909C
:10098000AF909F908F907F906F905F904F903F902F
:100990002F900895EF92FF920F931F937B018C018C
:1009A00097FF0BC08DE20E942B0410950095F094E8
:1009B000E094E11CF11C011D111D2AE030E040E033
:1009C00050E0C801B7010E943F041F910F91FF90B2
:1009D000EF90089520E130E040E050E00E943F04B5
:1009E000089528E030E040E050E00E943F04089580
:1009F00022E030E040E050E00E943F04089597FB81
:100A0000092E07260AD077FD04D049D006D0002051
:100A10001AF4709561957F4F0895F6F7909581953A
:100A20009F4F0895A1E21A2EAA1BBB1BFD010DC00A
:100A3000AA1FBB1FEE1FFF1FA217B307E407F5078E
:100A400020F0A21BB30BE40BF50B661F771F881F6A
:100A5000991F1A9469F760957095809590959B0100
:100A6000AC01BD01CF01089597FB092E05260ED0DC
:100A700057FD04D0D7DF0AD0001C38F450954095BC
:100A8000309521953F4F4F4F5F4F0895F6F7909562
:100A90008095709561957F4F8F4F9F4F0895AA1B4A
:100AA000BB1B51E107C0AA1FBB1FA617B70710F059
:100AB000A61BB70B881F991F5A95A9F7809590958B
:100AC000BC01CD010895EE0FFF1F0590F491E02DBC
:020AD000099487
:100AD2000C0004000300020072007800670062004C
:020AE2007C0096
:00000001FF
