:100000000C945B000C9481000C9481000C94810092
:100010000C9481000C9481000C9481000C9481005C
:100020000C9481000C9481000C9481000C9481004C
:100030000C9481000C9481000C9481000C9481003C
:100040000C94BD010C9481000C9497030C948100D6
:100050000C9481000C9481000C9481000C9481001C
:100060000C9481000C948100BC0100000007000288
:10007000010000030406000000000000000001026F
:100080000408102040800102040810200102040826
:100090001020040404040404040402020202020204
:1000A0000303030303030000232629000025282B54
:1000B000000024272A0011241FBECFEFD4E0DEBFAA
:1000C000CDBF11E0A0E0B1E0E6E2FAE002C00590A9
:1000D0000D92A830B107D9F711E0A8E0B1E001C056
:1000E0001D92A139B107E1F710E0CAE6D0E004C0E3
:1000F0002297FE010E940F05C836D107C9F70C945C
:10010000E1000C94000060E0809106010E946B0207
:1001100061E0809106010E94D20260E080910401BA
:100120000E946B0261E0809104010E94D20260E0B3
:10013000809102010E946B0261E0809102010E94A5
:10014000D20261E0809100010E946B0240E855E21A
:1001500060E070E088E091E00E94EE0008950F9367
:100160001F93CF93DF93809106010E9489028C0137
:10017000809104010E948902EC01809102010E9499
:100180008902012B11F462E707C0CD2B11F467E659
:1001900003C0892B39F462E688E091E00E94FD00FB
:1001A00061E006C068E788E091E00E94FD0060E041
:1001B000809100010E94D202DF91CF911F910F9197
:1001C0000895CFEFD4E0DEBFCDBF0E9429020E9488
:1001D00083000E94AF00FDCF08950895CB01BA01BE
:1001E0000E941D0308950E945E03992708950E94AE
:1001F0006F0308950E948E030895862F0E94D503F1
:100200000895CB010E94DC030895862F0E94D50338
:1002100008950F931F938C016DE00E94FD006AE02A
:10022000C8010E94FD001F910F9108950F931F9325
:100230008C010E94FD00C8010E9409011F910F91CD
:1002400008950F931F938C010E940101C8010E9421
:1002500009011F910F9108950F931F938C010E9424
:100260000501C8010E9409011F910F910895CB015A
:10027000BA013327442755270E94E90308952AE04D
:100280000E94370108950F931F938C010E943F0134
:10029000C8010E9409011F910F910895AB016627C3
:1002A00077270E943F0108950F931F938C010E94AE
:1002B0004E01C8010E9409011F910F910895EF920C
:1002C000FF920F931F93CF93DF93EC017A018B0181
:1002D00077FF0BC06DE20E94FD0010950095F09431
:1002E000E094E11CF11C011D111D2AE0B801A701D9
:1002F000CE010E943701DF91CF911F910F91FF90A6
:10030000EF9008950F931F938C010E945F01C80125
:100310000E9409011F910F9108952115310521F4C3
:10032000642F0E94FD0008952A30310519F40E94BF
:100330005F0108950E94370108950F931F938C0168
:100340000E948D01C8010E9409011F910F9108951B
:10035000AB01662757FD6095762F0E945F010895D7
:100360000F931F938C010E94A801C8010E940901EC
:100370001F910F910895089508951F920F920FB63F
:100380000F9211248F939F93AF93BF9380910D0190
:1003900090910E01A0910F01B09110010196A11D45
:1003A000B11D80930D0190930E01A0930F01B093A6
:1003B0001001BF91AF919F918F910F900FBE0F9041
:1003C0001F90189560910D0170910E0180910F01A1
:1003D0009091100127E0660F771F881F991F2A95BB
:1003E000D1F72DE730E040E050E00E94BC04CA01A4
:1003F000B9010895AF92BF92CF92DF92EF92FF9230
:100400000F931F935B016C010E94E2017B018C0141
:100410000E94E2016E197F09800B910B6A157B0522
:100420008C059D05A8F31F910F91FF90EF90DF9031
:10043000CF90BF90AF900895019751F0880F991F0A
:10044000880F991F02972FB7F8940197F1F72FBFE4
:100450000895789410920D0110920E0110920F01E0
:100460001092100184B5826084BD84B5816084BD22
:1004700085B5826085BD85B5816085BDEEE6F0E01D
:10048000808181608083E1E8F0E080818260808308
:10049000808181608083E0E8F0E0808181608083FA
:1004A000E1EBF0E0808184608083E0EBF0E080812C
:1004B00081608083EAE7F0E08081846080838081CE
:1004C0008260808380818160808380818068808376
:1004D0001092C1000895282F3327C90182589F4FD9
:1004E000FC0194912E563F4FF9018491882381F0AD
:1004F000E82FFF27E055FF4FE491FF27662329F4FB
:10050000808190958923808308958081892B8083C1
:100510000895482F5527CA0186599F4FFC01249101
:10052000CA0182589F4FFC0194914E565F4FFA01C9
:1005300034913323A1F1222331F1233021F480912E
:1005400080008F7705C0243031F4809180008F7D4A
:100550008093800018C0213019F484B58F7704C0CF
:10056000223021F484B58F7D84BD0DC0263021F466
:100570008091B0008F7705C0273029F48091B000BA
:100580008F7D8093B000E32FFF27EA55FF4FE49162
:10059000FF278081892319F081E090E0089580E0B1
:1005A00090E00895482F5527CA0186599F4FFC01B6
:1005B0002491CA0182589F4FFC0194914E565F4F7F
:1005C000FA0134913323C1F1222331F1233021F494
:1005D000809180008F7705C0243031F480918000B5
:1005E0008F7D8093800018C0213019F484B58F77F7
:1005F00004C0223021F484B58F7D84BD0DC0263027
:1006000021F48091B0008F7705C0273029F48091C4
:10061000B0008F7D8093B000E32FFF27E555FF4F9B
:10062000E491FF27662329F48081909589238083B4
:1006300008958081892B80830895EF92FF920F9314
:100640001F937B018C0122E030E040E050E00E94EB
:10065000DE04205C3D4B404F5F4FCA01B901A80149
:1006600097010E94DE042150304040405040BB279B
:1006700057FDBA95A52F942F832F2F5F3F4F4F4FD4
:100680005F4F8093C50021502093C400E1ECF0E05F
:1006900080818061808380818860808380818068A0
:1006A00080831F910F91FF90EF900895982F809174
:1006B000C00085FFFCCF9093C600089580910B0188
:1006C00090910C012091090130910A01821B930B3A
:1006D00080589F4F60E870E00E94A90408954091FF
:1006E000090150910A0180910B0190910C0184172E
:1006F000950719F48FEF9FEF0895FA01EF5EFE4F13
:100700002081CA01019660E870E00E94A9049093DC
:100710000A0180930901822F992708958091090188
:1007200090910A0190930C0180930B0108951F9200
:100730000F920FB60F9211242F933F934F935F9315
:100740006F937F938F939F93AF93BF93EF93FF9399
:100750004091C600E0910B01F0910C01CF01019690
:1007600060E870E00E94A9049C01809109019091C9
:100770000A012817390739F0EF5EFE4F40833093A6
:100780000C0120930B01FF91EF91BF91AF919F91CD
:100790008F917F916F915F914F913F912F910F902A
:1007A0000FBE0F901F90189508950E94560308954C
:1007B0008AE00E94D5030895CF93DF93EC0103C034
:1007C00021960E94D50388818823D1F7DF91CF91AC
:1007D00008952F923F924F925F926F927F928F92E5
:1007E0009F92AF92BF92CF92DF92EF92FF920F93C0
:1007F0001F93CF93DF93CDB7DEB7A0970FB6F894D2
:10080000DEBF0FBECDBF6B017C0119012A0161154E
:1008100071058105910521F480E30E94D5034BC049
:100820006624772443015E010894A11CB11C850154
:10083000060D171DC701B601A20191010E94BC045B
:10084000F80160830894611C711C811C911CC70114
:10085000B601A20191010E94BC0469017A0121152F
:1008600031054105510519F773010894E108F108B4
:10087000EA0CFB1CAA24BB24650111C0F70180818E
:100880008A3010F4805D01C0895C0E94D503089411
:10089000A108B108C108D1080894E108F108882727
:1008A0009927DC0186199709A809B909A816B9067C
:1008B000CA06DB0619F7A0960FB6F894DEBF0FBE86
:1008C000CDBFDF91CF911F910F91FF90EF90DF90FF
:1008D000CF90BF90AF909F908F907F906F905F90E0
:1008E0004F903F902F900895EF92FF920F931F9398
:1008F0007B018C0197FF0BC08DE20E94D503109500
:100900000095F094E094E11CF11C011D111D2AE0FA
:1009100030E040E050E0C801B7010E94E9031F91B8
:100920000F91FF90EF90089520E130E040E050E01B
:100930000E94E903089528E030E040E050E00E9482
:10094000E903089522E030E040E050E00E94E9032E
:10095000089597FB092E07260AD077FD04D049D0C9
:1009600006D000201AF4709561957F4F0895F6F730
:10097000909581959F4F0895A1E21A2EAA1BBB1B4B
:10098000FD010DC0AA1FBB1FEE1FFF1FA217B3075B
:10099000E407F50720F0A21BB30BE40BF50B661F71
:1009A000771F881F991F1A9469F760957095809535
:1009B00090959B01AC01BD01CF01089597FB092ED5
:1009C00005260ED057FD04D0D7DF0AD0001C38F41E
:1009D00050954095309521953F4F4F4F5F4F08956B
:1009E000F6F790958095709561957F4F8F4F9F4F4B
:1009F0000895AA1BBB1B51E107C0AA1FBB1FA61766
:100A0000B70710F0A61BB70B881F991F5A95A9F7B7
:100A100080959095BC01CD010895EE0FFF1F0590C4
:060A2000F491E02D0994A1
:080A26000C00040003000200B3
:00000001FF
