:100000000C945B000C9481000C9481000C94810092
:100010000C9481000C9481000C9481000C9481005C
:100020000C9481000C9481000C9481000C9481004C
:100030000C9481000C9481000C9481000C9481003C
:100040000C94DA010C9481000C94B4030C9481009C
:100050000C9481000C9481000C9481000C9481001C
:100060000C9481000C948100D9010000000700026B
:10007000010000030406000000000000000001026F
:100080000408102040800102040810200102040826
:100090001020040404040404040402020202020204
:1000A0000303030303030000232629000025282B54
:1000B000000024272A0011241FBECFEFD4E0DEBFAA
:1000C000CDBF11E0A0E0B1E0E0E6FAE002C00590AB
:1000D0000D92AA30B107D9F711E0AAE0B1E001C052
:1000E0001D92A339B107E1F710E0CAE6D0E004C0E1
:1000F0002297FE010E942C05C836D107C9F70C943F
:10010000FE000C94000060E0809106010E948802CD
:1001100061E0809106010E94EF0260E0809104019D
:100120000E94880261E0809104010E94EF0260E079
:10013000809102010E94880261E0809102010E9488
:10014000EF0261E0809100010E94880240E855E2E0
:1001500060E070E08AE091E00E940B0108950F9347
:100160001F93CF93DF938AE091E00E9410018823D0
:10017000D1F18AE091E00E9414018237910599F54E
:10018000809106010E94A6028C01809104010E94C8
:10019000A602EC01809102010E94A602012B11F43B
:1001A00062E707C0CD2B11F467E603C0892B39F451
:1001B00062E68AE091E00E941A0161E006C068E709
:1001C0008AE091E00E941A0160E0809100010E94A3
:1001D000EF0268E071E08AE091E00E941E018AE08F
:1001E00091E00E94170164E670E080E090E00E94D8
:1001F0001702DF91CF911F910F910895CFEFD4E0B7
:10020000DEBFCDBF0E9446020E9483000E94AF0065
:10021000FDCF08950895CB01BA010E943A030895D5
:100220000E947B03992708950E948C0308950E94E1
:10023000AB030895862F0E94F2030895CB010E941C
:10024000F9030895862F0E94F20308950F931F93D8
:100250008C016DE00E941A016AE0C8010E941A0137
:100260001F910F9108950F931F938C010E941A0103
:10027000C8010E9426011F910F9108950F931F93AB
:100280008C010E941E01C8010E9426011F910F913E
:1002900008950F931F938C010E942201C8010E94B0
:1002A00026011F910F910895CB01BA0133274427EE
:1002B00055270E94060408952AE00E9454010895DB
:1002C0000F931F938C010E945C01C8010E942601BC
:1002D0001F910F910895AB01662777270E945C015B
:1002E00008950F931F938C010E946B01C8010E9417
:1002F00026011F910F910895EF92FF920F931F9384
:10030000CF93DF93EC017A018B0177FF0BC06DE295
:100310000E941A0110950095F094E094E11CF11CE4
:10032000011D111D2AE0B801A701CE010E94540150
:10033000DF91CF911F910F91FF90EF9008950F9350
:100340001F938C010E947C01C8010E9426011F910D
:100350000F9108952115310521F4642F0E941A018F
:1003600008952A30310519F40E947C0108950E94F5
:10037000540108950F931F938C010E94AA01C80194
:100380000E9426011F910F910895AB01662757FD2A
:100390006095762F0E947C0108950F931F938C0126
:1003A0000E94C501C8010E9426011F910F91089566
:1003B000089508951F920F920FB60F9211248F93F4
:1003C0009F93AF93BF9380910F0190911001A091E3
:1003D0001101B09112010196A11DB11D80930F0171
:1003E00090931001A0931101B0931201BF91AF91AE
:1003F0009F918F910F900FBE0F901F901895609155
:100400000F0170911001809111019091120127E06C
:10041000660F771F881F991F2A95D1F72DE730E0C7
:1004200040E050E00E94D904CA01B9010895AF929A
:10043000BF92CF92DF92EF92FF920F931F935B01D7
:100440006C010E94FF017B018C010E94FF016E196B
:100450007F09800B910B6A157B058C059D05A8F320
:100460001F910F91FF90EF90DF90CF90BF90AF90D2
:100470000895019751F0880F991F880F991F0297CF
:100480002FB7F8940197F1F72FBF08957894109241
:100490000F0110921001109211011092120184B5F7
:1004A000826084BD84B5816084BD85B5826085BD70
:1004B00085B5816085BDEEE6F0E080818160808356
:1004C000E1E8F0E0808182608083808181608083C8
:1004D000E0E8F0E0808181608083E1EBF0E0808102
:1004E00084608083E0EBF0E0808181608083EAE7D4
:1004F000F0E080818460808380818260808380815D
:10050000816080838081806880831092C10008951B
:10051000282F3327C90182589F4FFC0194912E56F2
:100520003F4FF9018491882381F0E82FFF27E055A0
:10053000FF4FE491FF27662329F48081909589235A
:10054000808308958081892B80830895482F5527C3
:10055000CA0186599F4FFC012491CA0182589F4FBE
:10056000FC0194914E565F4FFA0134913323A1F16F
:10057000222331F1233021F4809180008F7705C050
:10058000243031F4809180008F7D8093800018C0EA
:10059000213019F484B58F7704C0223021F484B55A
:1005A0008F7D84BD0DC0263021F48091B0008F77FF
:1005B00005C0273029F48091B0008F7D8093B00072
:1005C000E32FFF27EA55FF4FE491FF27808189231E
:1005D00019F081E090E0089580E090E00895482FC0
:1005E0005527CA0186599F4FFC012491CA018258A0
:1005F0009F4FFC0194914E565F4FFA013491332383
:10060000C1F1222331F1233021F4809180008F77D2
:1006100005C0243031F4809180008F7D809380006C
:1006200018C0213019F484B58F7704C0223021F42A
:1006300084B58F7D84BD0DC0263021F48091B0003B
:100640008F7705C0273029F48091B0008F7D80938B
:10065000B000E32FFF27E555FF4FE491FF27662306
:1006600029F4808190958923808308958081892B46
:1006700080830895EF92FF920F931F937B018C016B
:1006800022E030E040E050E00E94FB04205C3D4B63
:10069000404F5F4FCA01B901A80197010E94FB04B6
:1006A0002150304040405040BB2757FDBA95A52F00
:1006B000942F832F2F5F3F4F4F4F5F4F8093C50085
:1006C00021502093C400E1ECF0E0808180618083C0
:1006D0008081886080838081806880831F910F91F2
:1006E000FF90EF900895982F8091C00085FFFCCF78
:1006F0009093C600089580910D0190910E01209174
:100700000B0130910C01821B930B80589F4F60E8C6
:1007100070E00E94C604089540910B0150910C01B5
:1007200080910D0190910E018417950719F48FEFB8
:100730009FEF0895FA01ED5EFE4F2081CA010196F8
:1007400060E870E00E94C60490930C0180930B0156
:10075000822F9927089580910B0190910C0190931D
:100760000E0180930D0108951F920F920FB60F9204
:1007700011242F933F934F935F936F937F938F93A6
:100780009F93AF93BF93EF93FF934091C600E09187
:100790000D01F0910E01CF01019660E870E00E941A
:1007A000C6049C0180910B0190910C012817390718
:1007B00039F0ED5EFE4F408330930E0120930D0122
:1007C000FF91EF91BF91AF919F918F917F916F9129
:1007D0005F914F913F912F910F900FBE0F901F90FF
:1007E000189508950E94730308958AE00E94F20309
:1007F0000895CF93DF93EC0103C021960E94F2038A
:1008000088818823D1F7DF91CF9108952F923F926D
:100810004F925F926F927F928F929F92AF92BF9210
:10082000CF92DF92EF92FF920F931F93CF93DF93BC
:10083000CDB7DEB7A0970FB6F894DEBF0FBECDBF21
:100840006B017C0119012A01611571058105910572
:1008500021F480E30E94F2034BC066247724430115
:100860005E010894A11CB11C8501060D171DC7016E
:10087000B601A20191010E94D904F8016083089495
:10088000611C711C811C911CC701B601A201910160
:100890000E94D90469017A012115310541055105EC
:1008A00019F773010894E108F108EA0CFB1CAA246B
:1008B000BB24650111C0F70180818A3010F4805D8E
:1008C00001C0895C0E94F2030894A108B108C10824
:1008D000D1080894E108F10888279927DC018619D6
:1008E0009709A809B909A816B906CA06DB0619F7B7
:1008F000A0960FB6F894DEBF0FBECDBFDF91CF91AB
:100900001F910F91FF90EF90DF90CF90BF90AF902D
:100910009F908F907F906F905F904F903F902F901F
:100920000895EF92FF920F931F937B018C0197FF25
:100930000BC08DE20E94F20310950095F094E094B4
:10094000E11CF11C011D111D2AE030E040E050E0E7
:10095000C801B7010E9406041F910F91FF90EF900C
:10096000089520E130E040E050E00E940604089540
:1009700028E030E040E050E00E940604089522E0C4
:1009800030E040E050E00E940604089597FB092EF5
:1009900007260AD077FD04D049D006D000201AF4EB
:1009A000709561957F4F0895F6F7909581959F4FCB
:1009B0000895A1E21A2EAA1BBB1BFD010DC0AA1FA0
:1009C000BB1FEE1FFF1FA217B307E407F50720F0B8
:1009D000A21BB30BE40BF50B661F771F881F991F33
:1009E0001A9469F760957095809590959B01AC017C
:1009F000BD01CF01089597FB092E05260ED057FDA6
:100A000004D0D7DF0AD0001C38F4509540953095BB
:100A100021953F4F4F4F5F4F0895F6F79095809582
:100A2000709561957F4F8F4F9F4F0895AA1BBB1BF9
:100A300051E107C0AA1FBB1FA617B70710F0A61BDE
:100A4000B70B881F991F5A95A9F780959095BC01FF
:100A5000CD010895EE0FFF1F0590F491E02D09944C
:0A0A60000C000400030002007C00FB
:00000001FF
